{
  "contractName": "NarouNFT",
  "abi": [
    {
      "inputs": [
        {
          "internalType": "contract NarouToken",
          "name": "_narouToken",
          "type": "address"
        }
      ],
      "stateMutability": "nonpayable",
      "type": "constructor"
    },
    {
      "anonymous": false,
      "inputs": [
        {
          "indexed": true,
          "internalType": "address",
          "name": "owner",
          "type": "address"
        },
        {
          "indexed": true,
          "internalType": "address",
          "name": "approved",
          "type": "address"
        },
        {
          "indexed": true,
          "internalType": "uint256",
          "name": "tokenId",
          "type": "uint256"
        }
      ],
      "name": "Approval",
      "type": "event"
    },
    {
      "anonymous": false,
      "inputs": [
        {
          "indexed": true,
          "internalType": "address",
          "name": "owner",
          "type": "address"
        },
        {
          "indexed": true,
          "internalType": "address",
          "name": "operator",
          "type": "address"
        },
        {
          "indexed": false,
          "internalType": "bool",
          "name": "approved",
          "type": "bool"
        }
      ],
      "name": "ApprovalForAll",
      "type": "event"
    },
    {
      "anonymous": false,
      "inputs": [
        {
          "indexed": true,
          "internalType": "address",
          "name": "previousOwner",
          "type": "address"
        },
        {
          "indexed": true,
          "internalType": "address",
          "name": "newOwner",
          "type": "address"
        }
      ],
      "name": "OwnershipTransferred",
      "type": "event"
    },
    {
      "anonymous": false,
      "inputs": [
        {
          "indexed": true,
          "internalType": "address",
          "name": "from",
          "type": "address"
        },
        {
          "indexed": true,
          "internalType": "address",
          "name": "to",
          "type": "address"
        },
        {
          "indexed": true,
          "internalType": "uint256",
          "name": "tokenId",
          "type": "uint256"
        }
      ],
      "name": "Transfer",
      "type": "event"
    },
    {
      "inputs": [
        {
          "internalType": "address",
          "name": "to",
          "type": "address"
        },
        {
          "internalType": "uint256",
          "name": "tokenId",
          "type": "uint256"
        }
      ],
      "name": "approve",
      "outputs": [],
      "stateMutability": "nonpayable",
      "type": "function"
    },
    {
      "inputs": [
        {
          "internalType": "address",
          "name": "owner",
          "type": "address"
        }
      ],
      "name": "balanceOf",
      "outputs": [
        {
          "internalType": "uint256",
          "name": "",
          "type": "uint256"
        }
      ],
      "stateMutability": "view",
      "type": "function",
      "constant": true
    },
    {
      "inputs": [
        {
          "internalType": "uint256",
          "name": "tokenId",
          "type": "uint256"
        }
      ],
      "name": "getApproved",
      "outputs": [
        {
          "internalType": "address",
          "name": "",
          "type": "address"
        }
      ],
      "stateMutability": "view",
      "type": "function",
      "constant": true
    },
    {
      "inputs": [
        {
          "internalType": "address",
          "name": "owner",
          "type": "address"
        },
        {
          "internalType": "address",
          "name": "operator",
          "type": "address"
        }
      ],
      "name": "isApprovedForAll",
      "outputs": [
        {
          "internalType": "bool",
          "name": "",
          "type": "bool"
        }
      ],
      "stateMutability": "view",
      "type": "function",
      "constant": true
    },
    {
      "inputs": [],
      "name": "name",
      "outputs": [
        {
          "internalType": "string",
          "name": "",
          "type": "string"
        }
      ],
      "stateMutability": "view",
      "type": "function",
      "constant": true
    },
    {
      "inputs": [],
      "name": "owner",
      "outputs": [
        {
          "internalType": "address",
          "name": "",
          "type": "address"
        }
      ],
      "stateMutability": "view",
      "type": "function",
      "constant": true
    },
    {
      "inputs": [
        {
          "internalType": "uint256",
          "name": "tokenId",
          "type": "uint256"
        }
      ],
      "name": "ownerOf",
      "outputs": [
        {
          "internalType": "address",
          "name": "",
          "type": "address"
        }
      ],
      "stateMutability": "view",
      "type": "function",
      "constant": true
    },
    {
      "inputs": [],
      "name": "renounceOwnership",
      "outputs": [],
      "stateMutability": "nonpayable",
      "type": "function"
    },
    {
      "inputs": [
        {
          "internalType": "address",
          "name": "from",
          "type": "address"
        },
        {
          "internalType": "address",
          "name": "to",
          "type": "address"
        },
        {
          "internalType": "uint256",
          "name": "tokenId",
          "type": "uint256"
        }
      ],
      "name": "safeTransferFrom",
      "outputs": [],
      "stateMutability": "nonpayable",
      "type": "function"
    },
    {
      "inputs": [
        {
          "internalType": "address",
          "name": "from",
          "type": "address"
        },
        {
          "internalType": "address",
          "name": "to",
          "type": "address"
        },
        {
          "internalType": "uint256",
          "name": "tokenId",
          "type": "uint256"
        },
        {
          "internalType": "bytes",
          "name": "data",
          "type": "bytes"
        }
      ],
      "name": "safeTransferFrom",
      "outputs": [],
      "stateMutability": "nonpayable",
      "type": "function"
    },
    {
      "inputs": [
        {
          "internalType": "address",
          "name": "operator",
          "type": "address"
        },
        {
          "internalType": "bool",
          "name": "approved",
          "type": "bool"
        }
      ],
      "name": "setApprovalForAll",
      "outputs": [],
      "stateMutability": "nonpayable",
      "type": "function"
    },
    {
      "inputs": [
        {
          "internalType": "bytes4",
          "name": "interfaceId",
          "type": "bytes4"
        }
      ],
      "name": "supportsInterface",
      "outputs": [
        {
          "internalType": "bool",
          "name": "",
          "type": "bool"
        }
      ],
      "stateMutability": "view",
      "type": "function",
      "constant": true
    },
    {
      "inputs": [],
      "name": "symbol",
      "outputs": [
        {
          "internalType": "string",
          "name": "",
          "type": "string"
        }
      ],
      "stateMutability": "view",
      "type": "function",
      "constant": true
    },
    {
      "inputs": [
        {
          "internalType": "uint256",
          "name": "tokenId",
          "type": "uint256"
        }
      ],
      "name": "tokenURI",
      "outputs": [
        {
          "internalType": "string",
          "name": "",
          "type": "string"
        }
      ],
      "stateMutability": "view",
      "type": "function",
      "constant": true
    },
    {
      "inputs": [
        {
          "internalType": "address",
          "name": "from",
          "type": "address"
        },
        {
          "internalType": "address",
          "name": "to",
          "type": "address"
        },
        {
          "internalType": "uint256",
          "name": "tokenId",
          "type": "uint256"
        }
      ],
      "name": "transferFrom",
      "outputs": [],
      "stateMutability": "nonpayable",
      "type": "function"
    },
    {
      "inputs": [
        {
          "internalType": "address",
          "name": "newOwner",
          "type": "address"
        }
      ],
      "name": "transferOwnership",
      "outputs": [],
      "stateMutability": "nonpayable",
      "type": "function"
    },
    {
      "inputs": [
        {
          "internalType": "address",
          "name": "to",
          "type": "address"
        },
        {
          "internalType": "uint256",
          "name": "tokenId",
          "type": "uint256"
        },
        {
          "internalType": "uint256",
          "name": "rewardAmount",
          "type": "uint256"
        }
      ],
      "name": "mintWithReward",
      "outputs": [],
      "stateMutability": "nonpayable",
      "type": "function"
    }
  ],
  "bytecode": "0x60806040523480156200001157600080fd5b5060405162002ef638038062002ef683398181016040528101906200003791906200027d565b6040518060400160405280600981526020017f4e61726f75204e465400000000000000000000000000000000000000000000008152506040518060400160405280600881526020017f4e41524f554e46540000000000000000000000000000000000000000000000008152508160009081620000b4919062000529565b508060019081620000c6919062000529565b505050620000e9620000dd6200013160201b60201c565b6200013960201b60201c565b80600760006101000a81548173ffffffffffffffffffffffffffffffffffffffff021916908373ffffffffffffffffffffffffffffffffffffffff1602179055505062000610565b600033905090565b6000600660009054906101000a900473ffffffffffffffffffffffffffffffffffffffff16905081600660006101000a81548173ffffffffffffffffffffffffffffffffffffffff021916908373ffffffffffffffffffffffffffffffffffffffff1602179055508173ffffffffffffffffffffffffffffffffffffffff168173ffffffffffffffffffffffffffffffffffffffff167f8be0079c531659141344cd1fd0a4f28419497f9722a3daafe3b4186f6b6457e060405160405180910390a35050565b600080fd5b600073ffffffffffffffffffffffffffffffffffffffff82169050919050565b6000620002318262000204565b9050919050565b6000620002458262000224565b9050919050565b620002578162000238565b81146200026357600080fd5b50565b60008151905062000277816200024c565b92915050565b600060208284031215620002965762000295620001ff565b5b6000620002a68482850162000266565b91505092915050565b600081519050919050565b7f4e487b7100000000000000000000000000000000000000000000000000000000600052604160045260246000fd5b7f4e487b7100000000000000000000000000000000000000000000000000000000600052602260045260246000fd5b600060028204905060018216806200033157607f821691505b602082108103620003475762000346620002e9565b5b50919050565b60008190508160005260206000209050919050565b60006020601f8301049050919050565b600082821b905092915050565b600060088302620003b17fffffffffffffffffffffffffffffffffffffffffffffffffffffffffffffffff8262000372565b620003bd868362000372565b95508019841693508086168417925050509392505050565b6000819050919050565b6000819050919050565b60006200040a62000404620003fe84620003d5565b620003df565b620003d5565b9050919050565b6000819050919050565b6200042683620003e9565b6200043e620004358262000411565b8484546200037f565b825550505050565b600090565b6200045562000446565b620004628184846200041b565b505050565b5b818110156200048a576200047e6000826200044b565b60018101905062000468565b5050565b601f821115620004d957620004a3816200034d565b620004ae8462000362565b81016020851015620004be578190505b620004d6620004cd8562000362565b83018262000467565b50505b505050565b600082821c905092915050565b6000620004fe60001984600802620004de565b1980831691505092915050565b6000620005198383620004eb565b9150826002028217905092915050565b6200053482620002af565b67ffffffffffffffff81111562000550576200054f620002ba565b5b6200055c825462000318565b620005698282856200048e565b600060209050601f831160018114620005a157600084156200058c578287015190505b6200059885826200050b565b86555062000608565b601f198416620005b1866200034d565b60005b82811015620005db57848901518255600182019150602085019450602081019050620005b4565b86831015620005fb5784890151620005f7601f891682620004eb565b8355505b6001600288020188555050505b505050505050565b6128d680620006206000396000f3fe608060405234801561001057600080fd5b506004361061010b5760003560e01c8063715018a6116100a2578063a62567a111610071578063a62567a1146102a4578063b88d4fde146102c0578063c87b56dd146102dc578063e985e9c51461030c578063f2fde38b1461033c5761010b565b8063715018a6146102425780638da5cb5b1461024c57806395d89b411461026a578063a22cb465146102885761010b565b806323b872dd116100de57806323b872dd146101aa57806342842e0e146101c65780636352211e146101e257806370a08231146102125761010b565b806301ffc9a71461011057806306fdde0314610140578063081812fc1461015e578063095ea7b31461018e575b600080fd5b61012a60048036038101906101259190611a58565b610358565b6040516101379190611aa0565b60405180910390f35b61014861043a565b6040516101559190611b4b565b60405180910390f35b61017860048036038101906101739190611ba3565b6104cc565b6040516101859190611c11565b60405180910390f35b6101a860048036038101906101a39190611c58565b610512565b005b6101c460048036038101906101bf9190611c98565b610629565b005b6101e060048036038101906101db9190611c98565b610689565b005b6101fc60048036038101906101f79190611ba3565b6106a9565b6040516102099190611c11565b60405180910390f35b61022c60048036038101906102279190611ceb565b61072f565b6040516102399190611d27565b60405180910390f35b61024a6107e6565b005b6102546107fa565b6040516102619190611c11565b60405180910390f35b610272610824565b60405161027f9190611b4b565b60405180910390f35b6102a2600480360381019061029d9190611d6e565b6108b6565b005b6102be60048036038101906102b99190611dae565b6108cc565b005b6102da60048036038101906102d59190611f36565b610972565b005b6102f660048036038101906102f19190611ba3565b6109d4565b6040516103039190611b4b565b60405180910390f35b61032660048036038101906103219190611fb9565b610a3c565b6040516103339190611aa0565b60405180910390f35b61035660048036038101906103519190611ceb565b610ad0565b005b60007f80ac58cd000000000000000000000000000000000000000000000000000000007bffffffffffffffffffffffffffffffffffffffffffffffffffffffff1916827bffffffffffffffffffffffffffffffffffffffffffffffffffffffff1916148061042357507f5b5e139f000000000000000000000000000000000000000000000000000000007bffffffffffffffffffffffffffffffffffffffffffffffffffffffff1916827bffffffffffffffffffffffffffffffffffffffffffffffffffffffff1916145b80610433575061043282610b53565b5b9050919050565b60606000805461044990612028565b80601f016020809104026020016040519081016040528092919081815260200182805461047590612028565b80156104c25780601f10610497576101008083540402835291602001916104c2565b820191906000526020600020905b8154815290600101906020018083116104a557829003601f168201915b5050505050905090565b60006104d782610bbd565b6004600083815260200190815260200160002060009054906101000a900473ffffffffffffffffffffffffffffffffffffffff169050919050565b600061051d826106a9565b90508073ffffffffffffffffffffffffffffffffffffffff168373ffffffffffffffffffffffffffffffffffffffff160361058d576040517f08c379a0000000000000000000000000000000000000000000000000000000008152600401610584906120cb565b60405180910390fd5b8073ffffffffffffffffffffffffffffffffffffffff166105ac610c08565b73ffffffffffffffffffffffffffffffffffffffff1614806105db57506105da816105d5610c08565b610a3c565b5b61061a576040517f08c379a00000000000000000000000000000000000000000000000000000000081526004016106119061215d565b60405180910390fd5b6106248383610c10565b505050565b61063a610634610c08565b82610cc9565b610679576040517f08c379a0000000000000000000000000000000000000000000000000000000008152600401610670906121ef565b60405180910390fd5b610684838383610d5e565b505050565b6106a483838360405180602001604052806000815250610972565b505050565b6000806106b583611057565b9050600073ffffffffffffffffffffffffffffffffffffffff168173ffffffffffffffffffffffffffffffffffffffff1603610726576040517f08c379a000000000000000000000000000000000000000000000000000000000815260040161071d9061225b565b60405180910390fd5b80915050919050565b60008073ffffffffffffffffffffffffffffffffffffffff168273ffffffffffffffffffffffffffffffffffffffff160361079f576040517f08c379a0000000000000000000000000000000000000000000000000000000008152600401610796906122ed565b60405180910390fd5b600360008373ffffffffffffffffffffffffffffffffffffffff1673ffffffffffffffffffffffffffffffffffffffff168152602001908152602001600020549050919050565b6107ee611094565b6107f86000611112565b565b6000600660009054906101000a900473ffffffffffffffffffffffffffffffffffffffff16905090565b60606001805461083390612028565b80601f016020809104026020016040519081016040528092919081815260200182805461085f90612028565b80156108ac5780601f10610881576101008083540402835291602001916108ac565b820191906000526020600020905b81548152906001019060200180831161088f57829003601f168201915b5050505050905090565b6108c86108c1610c08565b83836111d8565b5050565b6108d4611094565b6108de8383611344565b600760009054906101000a900473ffffffffffffffffffffffffffffffffffffffff1673ffffffffffffffffffffffffffffffffffffffff166340c10f1984836040518363ffffffff1660e01b815260040161093b92919061230d565b600060405180830381600087803b15801561095557600080fd5b505af1158015610969573d6000803e3d6000fd5b50505050505050565b61098361097d610c08565b83610cc9565b6109c2576040517f08c379a00000000000000000000000000000000000000000000000000000000081526004016109b9906121ef565b60405180910390fd5b6109ce84848484611561565b50505050565b60606109df82610bbd565b60006109e96115bd565b90506000815111610a095760405180602001604052806000815250610a34565b80610a13846115d4565b604051602001610a24929190612372565b6040516020818303038152906040525b915050919050565b6000600560008473ffffffffffffffffffffffffffffffffffffffff1673ffffffffffffffffffffffffffffffffffffffff16815260200190815260200160002060008373ffffffffffffffffffffffffffffffffffffffff1673ffffffffffffffffffffffffffffffffffffffff16815260200190815260200160002060009054906101000a900460ff16905092915050565b610ad8611094565b600073ffffffffffffffffffffffffffffffffffffffff168173ffffffffffffffffffffffffffffffffffffffff1603610b47576040517f08c379a0000000000000000000000000000000000000000000000000000000008152600401610b3e90612408565b60405180910390fd5b610b5081611112565b50565b60007f01ffc9a7000000000000000000000000000000000000000000000000000000007bffffffffffffffffffffffffffffffffffffffffffffffffffffffff1916827bffffffffffffffffffffffffffffffffffffffffffffffffffffffff1916149050919050565b610bc6816116a2565b610c05576040517f08c379a0000000000000000000000000000000000000000000000000000000008152600401610bfc9061225b565b60405180910390fd5b50565b600033905090565b816004600083815260200190815260200160002060006101000a81548173ffffffffffffffffffffffffffffffffffffffff021916908373ffffffffffffffffffffffffffffffffffffffff160217905550808273ffffffffffffffffffffffffffffffffffffffff16610c83836106a9565b73ffffffffffffffffffffffffffffffffffffffff167f8c5be1e5ebec7d5bd14f71427d1e84f3dd0314c0f7b2291e5b200ac8c7c3b92560405160405180910390a45050565b600080610cd5836106a9565b90508073ffffffffffffffffffffffffffffffffffffffff168473ffffffffffffffffffffffffffffffffffffffff161480610d175750610d168185610a3c565b5b80610d5557508373ffffffffffffffffffffffffffffffffffffffff16610d3d846104cc565b73ffffffffffffffffffffffffffffffffffffffff16145b91505092915050565b8273ffffffffffffffffffffffffffffffffffffffff16610d7e826106a9565b73ffffffffffffffffffffffffffffffffffffffff1614610dd4576040517f08c379a0000000000000000000000000000000000000000000000000000000008152600401610dcb9061249a565b60405180910390fd5b600073ffffffffffffffffffffffffffffffffffffffff168273ffffffffffffffffffffffffffffffffffffffff1603610e43576040517f08c379a0000000000000000000000000000000000000000000000000000000008152600401610e3a9061252c565b60405180910390fd5b610e5083838360016116e3565b8273ffffffffffffffffffffffffffffffffffffffff16610e70826106a9565b73ffffffffffffffffffffffffffffffffffffffff1614610ec6576040517f08c379a0000000000000000000000000000000000000000000000000000000008152600401610ebd9061249a565b60405180910390fd5b6004600082815260200190815260200160002060006101000a81549073ffffffffffffffffffffffffffffffffffffffff02191690556001600360008573ffffffffffffffffffffffffffffffffffffffff1673ffffffffffffffffffffffffffffffffffffffff168152602001908152602001600020600082825403925050819055506001600360008473ffffffffffffffffffffffffffffffffffffffff1673ffffffffffffffffffffffffffffffffffffffff16815260200190815260200160002060008282540192505081905550816002600083815260200190815260200160002060006101000a81548173ffffffffffffffffffffffffffffffffffffffff021916908373ffffffffffffffffffffffffffffffffffffffff160217905550808273ffffffffffffffffffffffffffffffffffffffff168473ffffffffffffffffffffffffffffffffffffffff167fddf252ad1be2c89b69c2b068fc378daa952ba7f163c4a11628f55a4df523b3ef60405160405180910390a461105283838360016116e9565b505050565b60006002600083815260200190815260200160002060009054906101000a900473ffffffffffffffffffffffffffffffffffffffff169050919050565b61109c610c08565b73ffffffffffffffffffffffffffffffffffffffff166110ba6107fa565b73ffffffffffffffffffffffffffffffffffffffff1614611110576040517f08c379a000000000000000000000000000000000000000000000000000000000815260040161110790612598565b60405180910390fd5b565b6000600660009054906101000a900473ffffffffffffffffffffffffffffffffffffffff16905081600660006101000a81548173ffffffffffffffffffffffffffffffffffffffff021916908373ffffffffffffffffffffffffffffffffffffffff1602179055508173ffffffffffffffffffffffffffffffffffffffff168173ffffffffffffffffffffffffffffffffffffffff167f8be0079c531659141344cd1fd0a4f28419497f9722a3daafe3b4186f6b6457e060405160405180910390a35050565b8173ffffffffffffffffffffffffffffffffffffffff168373ffffffffffffffffffffffffffffffffffffffff1603611246576040517f08c379a000000000000000000000000000000000000000000000000000000000815260040161123d90612604565b60405180910390fd5b80600560008573ffffffffffffffffffffffffffffffffffffffff1673ffffffffffffffffffffffffffffffffffffffff16815260200190815260200160002060008473ffffffffffffffffffffffffffffffffffffffff1673ffffffffffffffffffffffffffffffffffffffff16815260200190815260200160002060006101000a81548160ff0219169083151502179055508173ffffffffffffffffffffffffffffffffffffffff168373ffffffffffffffffffffffffffffffffffffffff167f17307eab39ab6107e8899845ad3d59bd9653f200f220920489ca2b5937696c31836040516113379190611aa0565b60405180910390a3505050565b600073ffffffffffffffffffffffffffffffffffffffff168273ffffffffffffffffffffffffffffffffffffffff16036113b3576040517f08c379a00000000000000000000000000000000000000000000000000000000081526004016113aa90612670565b60405180910390fd5b6113bc816116a2565b156113fc576040517f08c379a00000000000000000000000000000000000000000000000000000000081526004016113f3906126dc565b60405180910390fd5b61140a6000838360016116e3565b611413816116a2565b15611453576040517f08c379a000000000000000000000000000000000000000000000000000000000815260040161144a906126dc565b60405180910390fd5b6001600360008473ffffffffffffffffffffffffffffffffffffffff1673ffffffffffffffffffffffffffffffffffffffff16815260200190815260200160002060008282540192505081905550816002600083815260200190815260200160002060006101000a81548173ffffffffffffffffffffffffffffffffffffffff021916908373ffffffffffffffffffffffffffffffffffffffff160217905550808273ffffffffffffffffffffffffffffffffffffffff16600073ffffffffffffffffffffffffffffffffffffffff167fddf252ad1be2c89b69c2b068fc378daa952ba7f163c4a11628f55a4df523b3ef60405160405180910390a461155d6000838360016116e9565b5050565b61156c848484610d5e565b611578848484846116ef565b6115b7576040517f08c379a00000000000000000000000000000000000000000000000000000000081526004016115ae9061276e565b60405180910390fd5b50505050565b606060405180602001604052806000815250905090565b6060600060016115e384611876565b01905060008167ffffffffffffffff81111561160257611601611e0b565b5b6040519080825280601f01601f1916602001820160405280156116345781602001600182028036833780820191505090505b509050600082602001820190505b600115611697578080600190039150507f3031323334353637383961626364656600000000000000000000000000000000600a86061a8153600a858161168b5761168a61278e565b5b04945060008503611642575b819350505050919050565b60008073ffffffffffffffffffffffffffffffffffffffff166116c483611057565b73ffffffffffffffffffffffffffffffffffffffff1614159050919050565b50505050565b50505050565b60006117108473ffffffffffffffffffffffffffffffffffffffff166119c9565b15611869578373ffffffffffffffffffffffffffffffffffffffff1663150b7a02611739610c08565b8786866040518563ffffffff1660e01b815260040161175b9493929190612812565b6020604051808303816000875af192505050801561179757506040513d601f19601f820116820180604052508101906117949190612873565b60015b611819573d80600081146117c7576040519150601f19603f3d011682016040523d82523d6000602084013e6117cc565b606091505b506000815103611811576040517f08c379a00000000000000000000000000000000000000000000000000000000081526004016118089061276e565b60405180910390fd5b805181602001fd5b63150b7a0260e01b7bffffffffffffffffffffffffffffffffffffffffffffffffffffffff1916817bffffffffffffffffffffffffffffffffffffffffffffffffffffffff19161491505061186e565b600190505b949350505050565b600080600090507a184f03e93ff9f4daa797ed6e38ed64bf6a1f01000000000000000083106118d4577a184f03e93ff9f4daa797ed6e38ed64bf6a1f01000000000000000083816118ca576118c961278e565b5b0492506040810190505b6d04ee2d6d415b85acef81000000008310611911576d04ee2d6d415b85acef810000000083816119075761190661278e565b5b0492506020810190505b662386f26fc10000831061194057662386f26fc1000083816119365761193561278e565b5b0492506010810190505b6305f5e1008310611969576305f5e100838161195f5761195e61278e565b5b0492506008810190505b612710831061198e5761271083816119845761198361278e565b5b0492506004810190505b606483106119b157606483816119a7576119a661278e565b5b0492506002810190505b600a83106119c0576001810190505b80915050919050565b6000808273ffffffffffffffffffffffffffffffffffffffff163b119050919050565b6000604051905090565b600080fd5b600080fd5b60007fffffffff0000000000000000000000000000000000000000000000000000000082169050919050565b611a3581611a00565b8114611a4057600080fd5b50565b600081359050611a5281611a2c565b92915050565b600060208284031215611a6e57611a6d6119f6565b5b6000611a7c84828501611a43565b91505092915050565b60008115159050919050565b611a9a81611a85565b82525050565b6000602082019050611ab56000830184611a91565b92915050565b600081519050919050565b600082825260208201905092915050565b60005b83811015611af5578082015181840152602081019050611ada565b60008484015250505050565b6000601f19601f8301169050919050565b6000611b1d82611abb565b611b278185611ac6565b9350611b37818560208601611ad7565b611b4081611b01565b840191505092915050565b60006020820190508181036000830152611b658184611b12565b905092915050565b6000819050919050565b611b8081611b6d565b8114611b8b57600080fd5b50565b600081359050611b9d81611b77565b92915050565b600060208284031215611bb957611bb86119f6565b5b6000611bc784828501611b8e565b91505092915050565b600073ffffffffffffffffffffffffffffffffffffffff82169050919050565b6000611bfb82611bd0565b9050919050565b611c0b81611bf0565b82525050565b6000602082019050611c266000830184611c02565b92915050565b611c3581611bf0565b8114611c4057600080fd5b50565b600081359050611c5281611c2c565b92915050565b60008060408385031215611c6f57611c6e6119f6565b5b6000611c7d85828601611c43565b9250506020611c8e85828601611b8e565b9150509250929050565b600080600060608486031215611cb157611cb06119f6565b5b6000611cbf86828701611c43565b9350506020611cd086828701611c43565b9250506040611ce186828701611b8e565b9150509250925092565b600060208284031215611d0157611d006119f6565b5b6000611d0f84828501611c43565b91505092915050565b611d2181611b6d565b82525050565b6000602082019050611d3c6000830184611d18565b92915050565b611d4b81611a85565b8114611d5657600080fd5b50565b600081359050611d6881611d42565b92915050565b60008060408385031215611d8557611d846119f6565b5b6000611d9385828601611c43565b9250506020611da485828601611d59565b9150509250929050565b600080600060608486031215611dc757611dc66119f6565b5b6000611dd586828701611c43565b9350506020611de686828701611b8e565b9250506040611df786828701611b8e565b9150509250925092565b600080fd5b600080fd5b7f4e487b7100000000000000000000000000000000000000000000000000000000600052604160045260246000fd5b611e4382611b01565b810181811067ffffffffffffffff82111715611e6257611e61611e0b565b5b80604052505050565b6000611e756119ec565b9050611e818282611e3a565b919050565b600067ffffffffffffffff821115611ea157611ea0611e0b565b5b611eaa82611b01565b9050602081019050919050565b82818337600083830152505050565b6000611ed9611ed484611e86565b611e6b565b905082815260208101848484011115611ef557611ef4611e06565b5b611f00848285611eb7565b509392505050565b600082601f830112611f1d57611f1c611e01565b5b8135611f2d848260208601611ec6565b91505092915050565b60008060008060808587031215611f5057611f4f6119f6565b5b6000611f5e87828801611c43565b9450506020611f6f87828801611c43565b9350506040611f8087828801611b8e565b925050606085013567ffffffffffffffff811115611fa157611fa06119fb565b5b611fad87828801611f08565b91505092959194509250565b60008060408385031215611fd057611fcf6119f6565b5b6000611fde85828601611c43565b9250506020611fef85828601611c43565b9150509250929050565b7f4e487b7100000000000000000000000000000000000000000000000000000000600052602260045260246000fd5b6000600282049050600182168061204057607f821691505b60208210810361205357612052611ff9565b5b50919050565b7f4552433732313a20617070726f76616c20746f2063757272656e74206f776e6560008201527f7200000000000000000000000000000000000000000000000000000000000000602082015250565b60006120b5602183611ac6565b91506120c082612059565b604082019050919050565b600060208201905081810360008301526120e4816120a8565b9050919050565b7f4552433732313a20617070726f76652063616c6c6572206973206e6f7420746f60008201527f6b656e206f776e6572206f7220617070726f76656420666f7220616c6c000000602082015250565b6000612147603d83611ac6565b9150612152826120eb565b604082019050919050565b600060208201905081810360008301526121768161213a565b9050919050565b7f4552433732313a2063616c6c6572206973206e6f7420746f6b656e206f776e6560008201527f72206f7220617070726f76656400000000000000000000000000000000000000602082015250565b60006121d9602d83611ac6565b91506121e48261217d565b604082019050919050565b60006020820190508181036000830152612208816121cc565b9050919050565b7f4552433732313a20696e76616c696420746f6b656e2049440000000000000000600082015250565b6000612245601883611ac6565b91506122508261220f565b602082019050919050565b6000602082019050818103600083015261227481612238565b9050919050565b7f4552433732313a2061646472657373207a65726f206973206e6f74206120766160008201527f6c6964206f776e65720000000000000000000000000000000000000000000000602082015250565b60006122d7602983611ac6565b91506122e28261227b565b604082019050919050565b60006020820190508181036000830152612306816122ca565b9050919050565b60006040820190506123226000830185611c02565b61232f6020830184611d18565b9392505050565b600081905092915050565b600061234c82611abb565b6123568185612336565b9350612366818560208601611ad7565b80840191505092915050565b600061237e8285612341565b915061238a8284612341565b91508190509392505050565b7f4f776e61626c653a206e6577206f776e657220697320746865207a65726f206160008201527f6464726573730000000000000000000000000000000000000000000000000000602082015250565b60006123f2602683611ac6565b91506123fd82612396565b604082019050919050565b60006020820190508181036000830152612421816123e5565b9050919050565b7f4552433732313a207472616e736665722066726f6d20696e636f72726563742060008201527f6f776e6572000000000000000000000000000000000000000000000000000000602082015250565b6000612484602583611ac6565b915061248f82612428565b604082019050919050565b600060208201905081810360008301526124b381612477565b9050919050565b7f4552433732313a207472616e7366657220746f20746865207a65726f2061646460008201527f7265737300000000000000000000000000000000000000000000000000000000602082015250565b6000612516602483611ac6565b9150612521826124ba565b604082019050919050565b6000602082019050818103600083015261254581612509565b9050919050565b7f4f776e61626c653a2063616c6c6572206973206e6f7420746865206f776e6572600082015250565b6000612582602083611ac6565b915061258d8261254c565b602082019050919050565b600060208201905081810360008301526125b181612575565b9050919050565b7f4552433732313a20617070726f766520746f2063616c6c657200000000000000600082015250565b60006125ee601983611ac6565b91506125f9826125b8565b602082019050919050565b6000602082019050818103600083015261261d816125e1565b9050919050565b7f4552433732313a206d696e7420746f20746865207a65726f2061646472657373600082015250565b600061265a602083611ac6565b915061266582612624565b602082019050919050565b600060208201905081810360008301526126898161264d565b9050919050565b7f4552433732313a20746f6b656e20616c7265616479206d696e74656400000000600082015250565b60006126c6601c83611ac6565b91506126d182612690565b602082019050919050565b600060208201905081810360008301526126f5816126b9565b9050919050565b7f4552433732313a207472616e7366657220746f206e6f6e20455243373231526560008201527f63656976657220696d706c656d656e7465720000000000000000000000000000602082015250565b6000612758603283611ac6565b9150612763826126fc565b604082019050919050565b600060208201905081810360008301526127878161274b565b9050919050565b7f4e487b7100000000000000000000000000000000000000000000000000000000600052601260045260246000fd5b600081519050919050565b600082825260208201905092915050565b60006127e4826127bd565b6127ee81856127c8565b93506127fe818560208601611ad7565b61280781611b01565b840191505092915050565b60006080820190506128276000830187611c02565b6128346020830186611c02565b6128416040830185611d18565b818103606083015261285381846127d9565b905095945050505050565b60008151905061286d81611a2c565b92915050565b600060208284031215612889576128886119f6565b5b60006128978482850161285e565b9150509291505056fea264697066735822122045d88a0b0e03e9eea732e6665dd4f56d5712ca3e49cccc9fc0c35869e703e3a564736f6c63430008130033",
  "immutableReferences": {},
  "source": "// SPDX-License-Identifier: UNLICENSED\r\npragma solidity ^0.8.0;\r\n\r\nimport \"@openzeppelin/contracts/token/ERC721/ERC721.sol\";\r\nimport \"@openzeppelin/contracts/access/Ownable.sol\";\r\nimport \"./NarouToken.sol\";\r\n\r\ncontract NarouNFT is ERC721, Ownable {\r\n    NarouToken private narouToken;\r\n\r\n    constructor(NarouToken _narouToken) ERC721(\"Narou NFT\", \"NAROUNFT\") {\r\n        narouToken = _narouToken;\r\n    }\r\n\r\n    function mintWithReward(\r\n        address to,\r\n        uint256 tokenId,\r\n        uint256 rewardAmount\r\n    ) public onlyOwner {\r\n        _mint(to, tokenId);\r\n        narouToken.mint(to, rewardAmount);\r\n    }\r\n}\r\n",
  "sourcePath": "C:\\Users\\hirom\\kenkyuu\\kenkyuu\\blockchane\\contracts\\NarouNFT.sol",
  "compiler": {
    "name": "solc",
    "version": "0.8.19+commit.7dd6d404.Emscripten.clang"
  },
  "schemaVersion": "3.4.13",
  "updatedAt": "2023-03-24T05:44:29.145Z",
  "networkType": "ethereum",
  "devdoc": {
    "events": {
      "Approval(address,address,uint256)": {
        "details": "Emitted when `owner` enables `approved` to manage the `tokenId` token."
      },
      "ApprovalForAll(address,address,bool)": {
        "details": "Emitted when `owner` enables or disables (`approved`) `operator` to manage all of its assets."
      },
      "Transfer(address,address,uint256)": {
        "details": "Emitted when `tokenId` token is transferred from `from` to `to`."
      }
    },
    "kind": "dev",
    "methods": {
      "approve(address,uint256)": {
        "details": "See {IERC721-approve}."
      },
      "balanceOf(address)": {
        "details": "See {IERC721-balanceOf}."
      },
      "getApproved(uint256)": {
        "details": "See {IERC721-getApproved}."
      },
      "isApprovedForAll(address,address)": {
        "details": "See {IERC721-isApprovedForAll}."
      },
      "name()": {
        "details": "See {IERC721Metadata-name}."
      },
      "owner()": {
        "details": "Returns the address of the current owner."
      },
      "ownerOf(uint256)": {
        "details": "See {IERC721-ownerOf}."
      },
      "renounceOwnership()": {
        "details": "Leaves the contract without owner. It will not be possible to call `onlyOwner` functions anymore. Can only be called by the current owner. NOTE: Renouncing ownership will leave the contract without an owner, thereby removing any functionality that is only available to the owner."
      },
      "safeTransferFrom(address,address,uint256)": {
        "details": "See {IERC721-safeTransferFrom}."
      },
      "safeTransferFrom(address,address,uint256,bytes)": {
        "details": "See {IERC721-safeTransferFrom}."
      },
      "setApprovalForAll(address,bool)": {
        "details": "See {IERC721-setApprovalForAll}."
      },
      "supportsInterface(bytes4)": {
        "details": "See {IERC165-supportsInterface}."
      },
      "symbol()": {
        "details": "See {IERC721Metadata-symbol}."
      },
      "tokenURI(uint256)": {
        "details": "See {IERC721Metadata-tokenURI}."
      },
      "transferFrom(address,address,uint256)": {
        "details": "See {IERC721-transferFrom}."
      },
      "transferOwnership(address)": {
        "details": "Transfers ownership of the contract to a new account (`newOwner`). Can only be called by the current owner."
      }
    },
    "version": 1
  },
  "userdoc": {
    "kind": "user",
    "methods": {},
    "version": 1
  }
}